{
  "_format": "hh-sol-artifact-1",
  "contractName": "HelloNft",
  "sourceName": "contracts/HelloNft.sol",
  "abi": [
    {
      "inputs": [
        {
          "internalType": "string",
          "name": "_name",
          "type": "string"
        },
        {
          "internalType": "string",
          "name": "_symbol",
          "type": "string"
        },
        {
          "internalType": "string",
          "name": "_initBaseURI",
          "type": "string"
        }
      ],
      "stateMutability": "nonpayable",
      "type": "constructor"
    },
    {
      "inputs": [],
      "name": "ApprovalCallerNotOwnerNorApproved",
      "type": "error"
    },
    {
      "inputs": [],
      "name": "ApprovalQueryForNonexistentToken",
      "type": "error"
    },
    {
      "inputs": [],
      "name": "ApprovalToCurrentOwner",
      "type": "error"
    },
    {
      "inputs": [],
      "name": "ApproveToCaller",
      "type": "error"
    },
    {
      "inputs": [],
      "name": "BalanceQueryForZeroAddress",
      "type": "error"
    },
    {
      "inputs": [],
      "name": "MintToZeroAddress",
      "type": "error"
    },
    {
      "inputs": [],
      "name": "MintZeroQuantity",
      "type": "error"
    },
    {
      "inputs": [],
      "name": "OwnerQueryForNonexistentToken",
      "type": "error"
    },
    {
      "inputs": [],
      "name": "TransferCallerNotOwnerNorApproved",
      "type": "error"
    },
    {
      "inputs": [],
      "name": "TransferFromIncorrectOwner",
      "type": "error"
    },
    {
      "inputs": [],
      "name": "TransferToNonERC721ReceiverImplementer",
      "type": "error"
    },
    {
      "inputs": [],
      "name": "TransferToZeroAddress",
      "type": "error"
    },
    {
      "anonymous": false,
      "inputs": [
        {
          "indexed": true,
          "internalType": "address",
          "name": "owner",
          "type": "address"
        },
        {
          "indexed": true,
          "internalType": "address",
          "name": "approved",
          "type": "address"
        },
        {
          "indexed": true,
          "internalType": "uint256",
          "name": "tokenId",
          "type": "uint256"
        }
      ],
      "name": "Approval",
      "type": "event"
    },
    {
      "anonymous": false,
      "inputs": [
        {
          "indexed": true,
          "internalType": "address",
          "name": "owner",
          "type": "address"
        },
        {
          "indexed": true,
          "internalType": "address",
          "name": "operator",
          "type": "address"
        },
        {
          "indexed": false,
          "internalType": "bool",
          "name": "approved",
          "type": "bool"
        }
      ],
      "name": "ApprovalForAll",
      "type": "event"
    },
    {
      "anonymous": false,
      "inputs": [
        {
          "indexed": true,
          "internalType": "address",
          "name": "previousOwner",
          "type": "address"
        },
        {
          "indexed": true,
          "internalType": "address",
          "name": "newOwner",
          "type": "address"
        }
      ],
      "name": "OwnershipTransferred",
      "type": "event"
    },
    {
      "anonymous": false,
      "inputs": [
        {
          "indexed": true,
          "internalType": "address",
          "name": "from",
          "type": "address"
        },
        {
          "indexed": true,
          "internalType": "address",
          "name": "to",
          "type": "address"
        },
        {
          "indexed": true,
          "internalType": "uint256",
          "name": "tokenId",
          "type": "uint256"
        }
      ],
      "name": "Transfer",
      "type": "event"
    },
    {
      "inputs": [
        {
          "internalType": "address",
          "name": "to",
          "type": "address"
        },
        {
          "internalType": "uint256",
          "name": "tokenId",
          "type": "uint256"
        }
      ],
      "name": "approve",
      "outputs": [],
      "stateMutability": "nonpayable",
      "type": "function"
    },
    {
      "inputs": [
        {
          "internalType": "address",
          "name": "owner",
          "type": "address"
        }
      ],
      "name": "balanceOf",
      "outputs": [
        {
          "internalType": "uint256",
          "name": "",
          "type": "uint256"
        }
      ],
      "stateMutability": "view",
      "type": "function"
    },
    {
      "inputs": [],
      "name": "baseExtension",
      "outputs": [
        {
          "internalType": "string",
          "name": "",
          "type": "string"
        }
      ],
      "stateMutability": "view",
      "type": "function"
    },
    {
      "inputs": [],
      "name": "baseURI",
      "outputs": [
        {
          "internalType": "string",
          "name": "",
          "type": "string"
        }
      ],
      "stateMutability": "view",
      "type": "function"
    },
    {
      "inputs": [],
      "name": "cost",
      "outputs": [
        {
          "internalType": "uint256",
          "name": "",
          "type": "uint256"
        }
      ],
      "stateMutability": "view",
      "type": "function"
    },
    {
      "inputs": [
        {
          "internalType": "uint256",
          "name": "tokenId",
          "type": "uint256"
        }
      ],
      "name": "getApproved",
      "outputs": [
        {
          "internalType": "address",
          "name": "",
          "type": "address"
        }
      ],
      "stateMutability": "view",
      "type": "function"
    },
    {
      "inputs": [
        {
          "internalType": "address",
          "name": "owner",
          "type": "address"
        },
        {
          "internalType": "address",
          "name": "operator",
          "type": "address"
        }
      ],
      "name": "isApprovedForAll",
      "outputs": [
        {
          "internalType": "bool",
          "name": "",
          "type": "bool"
        }
      ],
      "stateMutability": "view",
      "type": "function"
    },
    {
      "inputs": [],
      "name": "maxMintAmount",
      "outputs": [
        {
          "internalType": "uint256",
          "name": "",
          "type": "uint256"
        }
      ],
      "stateMutability": "view",
      "type": "function"
    },
    {
      "inputs": [],
      "name": "maxSupply",
      "outputs": [
        {
          "internalType": "uint256",
          "name": "",
          "type": "uint256"
        }
      ],
      "stateMutability": "view",
      "type": "function"
    },
    {
      "inputs": [
        {
          "internalType": "uint256",
          "name": "_quantity",
          "type": "uint256"
        }
      ],
      "name": "mint",
      "outputs": [],
      "stateMutability": "payable",
      "type": "function"
    },
    {
      "inputs": [],
      "name": "name",
      "outputs": [
        {
          "internalType": "string",
          "name": "",
          "type": "string"
        }
      ],
      "stateMutability": "view",
      "type": "function"
    },
    {
      "inputs": [],
      "name": "owner",
      "outputs": [
        {
          "internalType": "address",
          "name": "",
          "type": "address"
        }
      ],
      "stateMutability": "view",
      "type": "function"
    },
    {
      "inputs": [
        {
          "internalType": "uint256",
          "name": "tokenId",
          "type": "uint256"
        }
      ],
      "name": "ownerOf",
      "outputs": [
        {
          "internalType": "address",
          "name": "",
          "type": "address"
        }
      ],
      "stateMutability": "view",
      "type": "function"
    },
    {
      "inputs": [
        {
          "internalType": "bool",
          "name": "_state",
          "type": "bool"
        }
      ],
      "name": "pause",
      "outputs": [],
      "stateMutability": "nonpayable",
      "type": "function"
    },
    {
      "inputs": [],
      "name": "paused",
      "outputs": [
        {
          "internalType": "bool",
          "name": "",
          "type": "bool"
        }
      ],
      "stateMutability": "view",
      "type": "function"
    },
    {
      "inputs": [
        {
          "internalType": "address",
          "name": "_user",
          "type": "address"
        }
      ],
      "name": "removeWhitelistUser",
      "outputs": [],
      "stateMutability": "nonpayable",
      "type": "function"
    },
    {
      "inputs": [],
      "name": "renounceOwnership",
      "outputs": [],
      "stateMutability": "nonpayable",
      "type": "function"
    },
    {
      "inputs": [
        {
          "internalType": "address",
          "name": "from",
          "type": "address"
        },
        {
          "internalType": "address",
          "name": "to",
          "type": "address"
        },
        {
          "internalType": "uint256",
          "name": "tokenId",
          "type": "uint256"
        }
      ],
      "name": "safeTransferFrom",
      "outputs": [],
      "stateMutability": "nonpayable",
      "type": "function"
    },
    {
      "inputs": [
        {
          "internalType": "address",
          "name": "from",
          "type": "address"
        },
        {
          "internalType": "address",
          "name": "to",
          "type": "address"
        },
        {
          "internalType": "uint256",
          "name": "tokenId",
          "type": "uint256"
        },
        {
          "internalType": "bytes",
          "name": "_data",
          "type": "bytes"
        }
      ],
      "name": "safeTransferFrom",
      "outputs": [],
      "stateMutability": "nonpayable",
      "type": "function"
    },
    {
      "inputs": [
        {
          "internalType": "address",
          "name": "operator",
          "type": "address"
        },
        {
          "internalType": "bool",
          "name": "approved",
          "type": "bool"
        }
      ],
      "name": "setApprovalForAll",
      "outputs": [],
      "stateMutability": "nonpayable",
      "type": "function"
    },
    {
      "inputs": [
        {
          "internalType": "string",
          "name": "_newBaseExtension",
          "type": "string"
        }
      ],
      "name": "setBaseExtension",
      "outputs": [],
      "stateMutability": "nonpayable",
      "type": "function"
    },
    {
      "inputs": [
        {
          "internalType": "string",
          "name": "_newBaseURI",
          "type": "string"
        }
      ],
      "name": "setBaseURI",
      "outputs": [],
      "stateMutability": "nonpayable",
      "type": "function"
    },
    {
      "inputs": [
        {
          "internalType": "uint256",
          "name": "_newCost",
          "type": "uint256"
        }
      ],
      "name": "setCost",
      "outputs": [],
      "stateMutability": "nonpayable",
      "type": "function"
    },
    {
      "inputs": [
        {
          "internalType": "uint256",
          "name": "_newmaxMintAmount",
          "type": "uint256"
        }
      ],
      "name": "setmaxMintAmount",
      "outputs": [],
      "stateMutability": "nonpayable",
      "type": "function"
    },
    {
      "inputs": [
        {
          "internalType": "bytes4",
          "name": "interfaceId",
          "type": "bytes4"
        }
      ],
      "name": "supportsInterface",
      "outputs": [
        {
          "internalType": "bool",
          "name": "",
          "type": "bool"
        }
      ],
      "stateMutability": "view",
      "type": "function"
    },
    {
      "inputs": [],
      "name": "symbol",
      "outputs": [
        {
          "internalType": "string",
          "name": "",
          "type": "string"
        }
      ],
      "stateMutability": "view",
      "type": "function"
    },
    {
      "inputs": [
        {
          "internalType": "uint256",
          "name": "tokenId",
          "type": "uint256"
        }
      ],
      "name": "tokenURI",
      "outputs": [
        {
          "internalType": "string",
          "name": "",
          "type": "string"
        }
      ],
      "stateMutability": "view",
      "type": "function"
    },
    {
      "inputs": [],
      "name": "totalSupply",
      "outputs": [
        {
          "internalType": "uint256",
          "name": "",
          "type": "uint256"
        }
      ],
      "stateMutability": "view",
      "type": "function"
    },
    {
      "inputs": [
        {
          "internalType": "address",
          "name": "from",
          "type": "address"
        },
        {
          "internalType": "address",
          "name": "to",
          "type": "address"
        },
        {
          "internalType": "uint256",
          "name": "tokenId",
          "type": "uint256"
        }
      ],
      "name": "transferFrom",
      "outputs": [],
      "stateMutability": "nonpayable",
      "type": "function"
    },
    {
      "inputs": [
        {
          "internalType": "address",
          "name": "newOwner",
          "type": "address"
        }
      ],
      "name": "transferOwnership",
      "outputs": [],
      "stateMutability": "nonpayable",
      "type": "function"
    },
    {
      "inputs": [
        {
          "internalType": "address",
          "name": "_user",
          "type": "address"
        }
      ],
      "name": "whitelistUser",
      "outputs": [],
      "stateMutability": "nonpayable",
      "type": "function"
    },
    {
      "inputs": [
        {
          "internalType": "address",
          "name": "",
          "type": "address"
        }
      ],
      "name": "whitelisted",
      "outputs": [
        {
          "internalType": "bool",
          "name": "",
          "type": "bool"
        }
      ],
      "stateMutability": "view",
      "type": "function"
    },
    {
      "inputs": [],
      "name": "withdraw",
      "outputs": [],
      "stateMutability": "payable",
      "type": "function"
    }
  ],
  "bytecode": "0x60806040526040518060400160405280600581526020017f2e6a736f6e000000000000000000000000000000000000000000000000000000815250600a9080519060200190620000519291906200086d565b5066f8b0a10e470000600b556028600c556004600d556000600e60006101000a81548160ff0219169083151502179055503480156200008f57600080fd5b5060405162004510380380620045108339818101604052810190620000b59190620009d2565b82828160029080519060200190620000cf9291906200086d565b508060039080519060200190620000e89291906200086d565b50620000f96200014e60201b60201c565b600081905550505062000121620001156200015760201b60201c565b6200015f60201b60201c565b62000132816200022560201b60201c565b62000145336004620002d060201b60201c565b50505062000dbd565b60006001905090565b600033905090565b6000600860009054906101000a900473ffffffffffffffffffffffffffffffffffffffff16905081600860006101000a81548173ffffffffffffffffffffffffffffffffffffffff021916908373ffffffffffffffffffffffffffffffffffffffff1602179055508173ffffffffffffffffffffffffffffffffffffffff168173ffffffffffffffffffffffffffffffffffffffff167f8be0079c531659141344cd1fd0a4f28419497f9722a3daafe3b4186f6b6457e060405160405180910390a35050565b620002356200015760201b60201c565b73ffffffffffffffffffffffffffffffffffffffff166200025b620002f660201b60201c565b73ffffffffffffffffffffffffffffffffffffffff1614620002b4576040517f08c379a0000000000000000000000000000000000000000000000000000000008152600401620002ab9062000b51565b60405180910390fd5b8060099080519060200190620002cc9291906200086d565b5050565b620002f28282604051806020016040528060008152506200032060201b60201c565b5050565b6000600860009054906101000a900473ffffffffffffffffffffffffffffffffffffffff16905090565b6200033583838360016200033a60201b60201c565b505050565b600080549050600073ffffffffffffffffffffffffffffffffffffffff168573ffffffffffffffffffffffffffffffffffffffff161415620003a8576040517f2e07630000000000000000000000000000000000000000000000000000000000815260040160405180910390fd5b6000841415620003e4576040517fb562e8dd00000000000000000000000000000000000000000000000000000000815260040160405180910390fd5b620003f960008683876200068f60201b60201c565b83600560008773ffffffffffffffffffffffffffffffffffffffff1673ffffffffffffffffffffffffffffffffffffffff16815260200190815260200160002060000160008282829054906101000a900467ffffffffffffffff160192506101000a81548167ffffffffffffffff021916908367ffffffffffffffff16021790555083600560008773ffffffffffffffffffffffffffffffffffffffff1673ffffffffffffffffffffffffffffffffffffffff16815260200190815260200160002060000160088282829054906101000a900467ffffffffffffffff160192506101000a81548167ffffffffffffffff021916908367ffffffffffffffff160217905550846004600083815260200190815260200160002060000160006101000a81548173ffffffffffffffffffffffffffffffffffffffff021916908373ffffffffffffffffffffffffffffffffffffffff160217905550426004600083815260200190815260200160002060000160146101000a81548167ffffffffffffffff021916908367ffffffffffffffff160217905550600081905060005b858110156200066a57818773ffffffffffffffffffffffffffffffffffffffff16600073ffffffffffffffffffffffffffffffffffffffff167fddf252ad1be2c89b69c2b068fc378daa952ba7f163c4a11628f55a4df523b3ef60405160405180910390a48380156200061c57506200061a60008884886200069560201b60201c565b155b1562000654576040517fd1a57ed600000000000000000000000000000000000000000000000000000000815260040160405180910390fd5b8180600101925050808060010191505062000597565b5080600081905550506200068860008683876200084460201b60201c565b5050505050565b50505050565b6000620006c38473ffffffffffffffffffffffffffffffffffffffff166200084a60201b620018bf1760201c565b1562000837578373ffffffffffffffffffffffffffffffffffffffff1663150b7a02620006f56200015760201b60201c565b8786866040518563ffffffff1660e01b815260040162000719949392919062000afd565b602060405180830381600087803b1580156200073457600080fd5b505af19250505080156200076857506040513d601f19601f82011682018060405250810190620007659190620009a6565b60015b620007e6573d80600081146200079b576040519150601f19603f3d011682016040523d82523d6000602084013e620007a0565b606091505b50600081511415620007de576040517fd1a57ed600000000000000000000000000000000000000000000000000000000815260040160405180910390fd5b805181602001fd5b63150b7a0260e01b7bffffffffffffffffffffffffffffffffffffffffffffffffffffffff1916817bffffffffffffffffffffffffffffffffffffffffffffffffffffffff1916149150506200083c565b600190505b949350505050565b50505050565b6000808273ffffffffffffffffffffffffffffffffffffffff163b119050919050565b8280546200087b9062000c9f565b90600052602060002090601f0160209004810192826200089f5760008555620008eb565b82601f10620008ba57805160ff1916838001178555620008eb565b82800160010185558215620008eb579182015b82811115620008ea578251825591602001919060010190620008cd565b5b509050620008fa9190620008fe565b5090565b5b8082111562000919576000816000905550600101620008ff565b5090565b6000620009346200092e8462000b9c565b62000b73565b9050828152602081018484840111156200094d57600080fd5b6200095a84828562000c69565b509392505050565b600081519050620009738162000da3565b92915050565b600082601f8301126200098b57600080fd5b81516200099d8482602086016200091d565b91505092915050565b600060208284031215620009b957600080fd5b6000620009c98482850162000962565b91505092915050565b600080600060608486031215620009e857600080fd5b600084015167ffffffffffffffff81111562000a0357600080fd5b62000a118682870162000979565b935050602084015167ffffffffffffffff81111562000a2f57600080fd5b62000a3d8682870162000979565b925050604084015167ffffffffffffffff81111562000a5b57600080fd5b62000a698682870162000979565b9150509250925092565b62000a7e8162000bff565b82525050565b600062000a918262000bd2565b62000a9d818562000bdd565b935062000aaf81856020860162000c69565b62000aba8162000d69565b840191505092915050565b600062000ad460208362000bee565b915062000ae18262000d7a565b602082019050919050565b62000af78162000c5f565b82525050565b600060808201905062000b14600083018762000a73565b62000b23602083018662000a73565b62000b32604083018562000aec565b818103606083015262000b46818462000a84565b905095945050505050565b6000602082019050818103600083015262000b6c8162000ac5565b9050919050565b600062000b7f62000b92565b905062000b8d828262000cd5565b919050565b6000604051905090565b600067ffffffffffffffff82111562000bba5762000bb962000d3a565b5b62000bc58262000d69565b9050602081019050919050565b600081519050919050565b600082825260208201905092915050565b600082825260208201905092915050565b600062000c0c8262000c3f565b9050919050565b60007fffffffff0000000000000000000000000000000000000000000000000000000082169050919050565b600073ffffffffffffffffffffffffffffffffffffffff82169050919050565b6000819050919050565b60005b8381101562000c8957808201518184015260208101905062000c6c565b8381111562000c99576000848401525b50505050565b6000600282049050600182168062000cb857607f821691505b6020821081141562000ccf5762000cce62000d0b565b5b50919050565b62000ce08262000d69565b810181811067ffffffffffffffff8211171562000d025762000d0162000d3a565b5b80604052505050565b7f4e487b7100000000000000000000000000000000000000000000000000000000600052602260045260246000fd5b7f4e487b7100000000000000000000000000000000000000000000000000000000600052604160045260246000fd5b6000601f19601f8301169050919050565b7f4f776e61626c653a2063616c6c6572206973206e6f7420746865206f776e6572600082015250565b62000dae8162000c13565b811462000dba57600080fd5b50565b6137438062000dcd6000396000f3fe6080604052600436106101ee5760003560e01c80636352211e1161010d578063a22cb465116100a0578063d5abeb011161006f578063d5abeb01146106a7578063d936547e146106d2578063da3ef23f1461070f578063e985e9c514610738578063f2fde38b14610775576101ee565b8063a22cb465146105ed578063b88d4fde14610616578063c66828621461063f578063c87b56dd1461066a576101ee565b80637f00c7a6116100dc5780637f00c7a6146105525780638da5cb5b1461057b57806395d89b41146105a6578063a0712d68146105d1576101ee565b80636352211e146104965780636c0360eb146104d357806370a08231146104fe578063715018a61461053b576101ee565b806323b872dd1161018557806344a0d68a1161015457806344a0d68a146103f05780634a4c560d1461041957806355f804b3146104425780635c975abb1461046b576101ee565b806323b872dd1461036b57806330cc7ae0146103945780633ccfd60b146103bd57806342842e0e146103c7576101ee565b8063095ea7b3116101c1578063095ea7b3146102c157806313faede6146102ea57806318160ddd14610315578063239c70ae14610340576101ee565b806301ffc9a7146101f357806302329a291461023057806306fdde0314610259578063081812fc14610284575b600080fd5b3480156101ff57600080fd5b5061021a60048036038101906102159190612dd2565b61079e565b60405161022791906130de565b60405180910390f35b34801561023c57600080fd5b5061025760048036038101906102529190612da9565b610880565b005b34801561026557600080fd5b5061026e610919565b60405161027b91906130f9565b60405180910390f35b34801561029057600080fd5b506102ab60048036038101906102a69190612e65565b6109ab565b6040516102b89190613077565b60405180910390f35b3480156102cd57600080fd5b506102e860048036038101906102e39190612d6d565b610a27565b005b3480156102f657600080fd5b506102ff610b32565b60405161030c919061317b565b60405180910390f35b34801561032157600080fd5b5061032a610b38565b604051610337919061317b565b60405180910390f35b34801561034c57600080fd5b50610355610b4f565b604051610362919061317b565b60405180910390f35b34801561037757600080fd5b50610392600480360381019061038d9190612c67565b610b55565b005b3480156103a057600080fd5b506103bb60048036038101906103b69190612c02565b610b65565b005b6103c5610c3c565b005b3480156103d357600080fd5b506103ee60048036038101906103e99190612c67565b610cf8565b005b3480156103fc57600080fd5b5061041760048036038101906104129190612e65565b610d18565b005b34801561042557600080fd5b50610440600480360381019061043b9190612c02565b610d9e565b005b34801561044e57600080fd5b5061046960048036038101906104649190612e24565b610e75565b005b34801561047757600080fd5b50610480610f0b565b60405161048d91906130de565b60405180910390f35b3480156104a257600080fd5b506104bd60048036038101906104b89190612e65565b610f1e565b6040516104ca9190613077565b60405180910390f35b3480156104df57600080fd5b506104e8610f34565b6040516104f591906130f9565b60405180910390f35b34801561050a57600080fd5b5061052560048036038101906105209190612c02565b610fc2565b604051610532919061317b565b60405180910390f35b34801561054757600080fd5b50610550611092565b005b34801561055e57600080fd5b5061057960048036038101906105749190612e65565b61111a565b005b34801561058757600080fd5b506105906111a0565b60405161059d9190613077565b60405180910390f35b3480156105b257600080fd5b506105bb6111ca565b6040516105c891906130f9565b60405180910390f35b6105eb60048036038101906105e69190612e65565b61125c565b005b3480156105f957600080fd5b50610614600480360381019061060f9190612d31565b611374565b005b34801561062257600080fd5b5061063d60048036038101906106389190612cb6565b6114ec565b005b34801561064b57600080fd5b5061065461153f565b60405161066191906130f9565b60405180910390f35b34801561067657600080fd5b50610691600480360381019061068c9190612e65565b6115cd565b60405161069e91906130f9565b60405180910390f35b3480156106b357600080fd5b506106bc611677565b6040516106c9919061317b565b60405180910390f35b3480156106de57600080fd5b506106f960048036038101906106f49190612c02565b61167d565b60405161070691906130de565b60405180910390f35b34801561071b57600080fd5b5061073660048036038101906107319190612e24565b61169d565b005b34801561074457600080fd5b5061075f600480360381019061075a9190612c2b565b611733565b60405161076c91906130de565b60405180910390f35b34801561078157600080fd5b5061079c60048036038101906107979190612c02565b6117c7565b005b60007f80ac58cd000000000000000000000000000000000000000000000000000000007bffffffffffffffffffffffffffffffffffffffffffffffffffffffff1916827bffffffffffffffffffffffffffffffffffffffffffffffffffffffff1916148061086957507f5b5e139f000000000000000000000000000000000000000000000000000000007bffffffffffffffffffffffffffffffffffffffffffffffffffffffff1916827bffffffffffffffffffffffffffffffffffffffffffffffffffffffff1916145b806108795750610878826118e2565b5b9050919050565b61088861194c565b73ffffffffffffffffffffffffffffffffffffffff166108a66111a0565b73ffffffffffffffffffffffffffffffffffffffff16146108fc576040517f08c379a00000000000000000000000000000000000000000000000000000000081526004016108f39061313b565b60405180910390fd5b80600e60006101000a81548160ff02191690831515021790555050565b60606002805461092890613440565b80601f016020809104026020016040519081016040528092919081815260200182805461095490613440565b80156109a15780601f10610976576101008083540402835291602001916109a1565b820191906000526020600020905b81548152906001019060200180831161098457829003601f168201915b5050505050905090565b60006109b682611954565b6109ec576040517fcf4700e400000000000000000000000000000000000000000000000000000000815260040160405180910390fd5b6006600083815260200190815260200160002060009054906101000a900473ffffffffffffffffffffffffffffffffffffffff169050919050565b6000610a3282610f1e565b90508073ffffffffffffffffffffffffffffffffffffffff168373ffffffffffffffffffffffffffffffffffffffff161415610a9a576040517f943f7b8c00000000000000000000000000000000000000000000000000000000815260040160405180910390fd5b8073ffffffffffffffffffffffffffffffffffffffff16610ab961194c565b73ffffffffffffffffffffffffffffffffffffffff1614158015610aeb5750610ae981610ae461194c565b611733565b155b15610b22576040517fcfb3b94200000000000000000000000000000000000000000000000000000000815260040160405180910390fd5b610b2d8383836119a2565b505050565b600b5481565b6000610b42611a54565b6001546000540303905090565b600d5481565b610b60838383611a5d565b505050565b610b6d61194c565b73ffffffffffffffffffffffffffffffffffffffff16610b8b6111a0565b73ffffffffffffffffffffffffffffffffffffffff1614610be1576040517f08c379a0000000000000000000000000000000000000000000000000000000008152600401610bd89061313b565b60405180910390fd5b6000600f60008373ffffffffffffffffffffffffffffffffffffffff1673ffffffffffffffffffffffffffffffffffffffff16815260200190815260200160002060006101000a81548160ff02191690831515021790555050565b610c4461194c565b73ffffffffffffffffffffffffffffffffffffffff16610c626111a0565b73ffffffffffffffffffffffffffffffffffffffff1614610cb8576040517f08c379a0000000000000000000000000000000000000000000000000000000008152600401610caf9061313b565b60405180910390fd5b3373ffffffffffffffffffffffffffffffffffffffff166108fc479081150290604051600060405180830381858888f19350505050610cf657600080fd5b565b610d13838383604051806020016040528060008152506114ec565b505050565b610d2061194c565b73ffffffffffffffffffffffffffffffffffffffff16610d3e6111a0565b73ffffffffffffffffffffffffffffffffffffffff1614610d94576040517f08c379a0000000000000000000000000000000000000000000000000000000008152600401610d8b9061313b565b60405180910390fd5b80600b8190555050565b610da661194c565b73ffffffffffffffffffffffffffffffffffffffff16610dc46111a0565b73ffffffffffffffffffffffffffffffffffffffff1614610e1a576040517f08c379a0000000000000000000000000000000000000000000000000000000008152600401610e119061313b565b60405180910390fd5b6001600f60008373ffffffffffffffffffffffffffffffffffffffff1673ffffffffffffffffffffffffffffffffffffffff16815260200190815260200160002060006101000a81548160ff02191690831515021790555050565b610e7d61194c565b73ffffffffffffffffffffffffffffffffffffffff16610e9b6111a0565b73ffffffffffffffffffffffffffffffffffffffff1614610ef1576040517f08c379a0000000000000000000000000000000000000000000000000000000008152600401610ee89061313b565b60405180910390fd5b8060099080519060200190610f079291906129e3565b5050565b600e60009054906101000a900460ff1681565b6000610f2982611f4e565b600001519050919050565b60098054610f4190613440565b80601f0160208091040260200160405190810160405280929190818152602001828054610f6d90613440565b8015610fba5780601f10610f8f57610100808354040283529160200191610fba565b820191906000526020600020905b815481529060010190602001808311610f9d57829003601f168201915b505050505081565b60008073ffffffffffffffffffffffffffffffffffffffff168273ffffffffffffffffffffffffffffffffffffffff16141561102a576040517f8f4eb60400000000000000000000000000000000000000000000000000000000815260040160405180910390fd5b600560008373ffffffffffffffffffffffffffffffffffffffff1673ffffffffffffffffffffffffffffffffffffffff16815260200190815260200160002060000160009054906101000a900467ffffffffffffffff1667ffffffffffffffff169050919050565b61109a61194c565b73ffffffffffffffffffffffffffffffffffffffff166110b86111a0565b73ffffffffffffffffffffffffffffffffffffffff161461110e576040517f08c379a00000000000000000000000000000000000000000000000000000000081526004016111059061313b565b60405180910390fd5b61111860006121dd565b565b61112261194c565b73ffffffffffffffffffffffffffffffffffffffff166111406111a0565b73ffffffffffffffffffffffffffffffffffffffff1614611196576040517f08c379a000000000000000000000000000000000000000000000000000000000815260040161118d9061313b565b60405180910390fd5b80600d8190555050565b6000600860009054906101000a900473ffffffffffffffffffffffffffffffffffffffff16905090565b6060600380546111d990613440565b80601f016020809104026020016040519081016040528092919081815260200182805461120590613440565b80156112525780601f1061122757610100808354040283529160200191611252565b820191906000526020600020905b81548152906001019060200180831161123557829003601f168201915b5050505050905090565b6000611266610b38565b9050600e60009054906101000a900460ff161561128257600080fd5b6000821161128f57600080fd5b600d5482111561129e57600080fd5b600c5482826112ad9190613275565b11156112b857600080fd5b6112c06111a0565b73ffffffffffffffffffffffffffffffffffffffff163373ffffffffffffffffffffffffffffffffffffffff16146113665760011515600f60003373ffffffffffffffffffffffffffffffffffffffff1673ffffffffffffffffffffffffffffffffffffffff16815260200190815260200160002060009054906101000a900460ff161515146113655781600b5461135891906132fc565b34101561136457600080fd5b5b5b61137033836122a3565b5050565b61137c61194c565b73ffffffffffffffffffffffffffffffffffffffff168273ffffffffffffffffffffffffffffffffffffffff1614156113e1576040517fb06307db00000000000000000000000000000000000000000000000000000000815260040160405180910390fd5b80600760006113ee61194c565b73ffffffffffffffffffffffffffffffffffffffff1673ffffffffffffffffffffffffffffffffffffffff16815260200190815260200160002060008473ffffffffffffffffffffffffffffffffffffffff1673ffffffffffffffffffffffffffffffffffffffff16815260200190815260200160002060006101000a81548160ff0219169083151502179055508173ffffffffffffffffffffffffffffffffffffffff1661149b61194c565b73ffffffffffffffffffffffffffffffffffffffff167f17307eab39ab6107e8899845ad3d59bd9653f200f220920489ca2b5937696c31836040516114e091906130de565b60405180910390a35050565b6114f7848484611a5d565b611503848484846122c1565b611539576040517fd1a57ed600000000000000000000000000000000000000000000000000000000815260040160405180910390fd5b50505050565b600a805461154c90613440565b80601f016020809104026020016040519081016040528092919081815260200182805461157890613440565b80156115c55780601f1061159a576101008083540402835291602001916115c5565b820191906000526020600020905b8154815290600101906020018083116115a857829003601f168201915b505050505081565b60606115d882611954565b611617576040517f08c379a000000000000000000000000000000000000000000000000000000000815260040161160e9061315b565b60405180910390fd5b600061162161244f565b90506000815111611641576040518060200160405280600081525061166f565b8061164b846124e1565b600a60405160200161165f93929190613046565b6040516020818303038152906040525b915050919050565b600c5481565b600f6020528060005260406000206000915054906101000a900460ff1681565b6116a561194c565b73ffffffffffffffffffffffffffffffffffffffff166116c36111a0565b73ffffffffffffffffffffffffffffffffffffffff1614611719576040517f08c379a00000000000000000000000000000000000000000000000000000000081526004016117109061313b565b60405180910390fd5b80600a908051906020019061172f9291906129e3565b5050565b6000600760008473ffffffffffffffffffffffffffffffffffffffff1673ffffffffffffffffffffffffffffffffffffffff16815260200190815260200160002060008373ffffffffffffffffffffffffffffffffffffffff1673ffffffffffffffffffffffffffffffffffffffff16815260200190815260200160002060009054906101000a900460ff16905092915050565b6117cf61194c565b73ffffffffffffffffffffffffffffffffffffffff166117ed6111a0565b73ffffffffffffffffffffffffffffffffffffffff1614611843576040517f08c379a000000000000000000000000000000000000000000000000000000000815260040161183a9061313b565b60405180910390fd5b600073ffffffffffffffffffffffffffffffffffffffff168173ffffffffffffffffffffffffffffffffffffffff1614156118b3576040517f08c379a00000000000000000000000000000000000000000000000000000000081526004016118aa9061311b565b60405180910390fd5b6118bc816121dd565b50565b6000808273ffffffffffffffffffffffffffffffffffffffff163b119050919050565b60007f01ffc9a7000000000000000000000000000000000000000000000000000000007bffffffffffffffffffffffffffffffffffffffffffffffffffffffff1916827bffffffffffffffffffffffffffffffffffffffffffffffffffffffff1916149050919050565b600033905090565b60008161195f611a54565b1115801561196e575060005482105b801561199b575060046000838152602001908152602001600020600001601c9054906101000a900460ff16155b9050919050565b826006600084815260200190815260200160002060006101000a81548173ffffffffffffffffffffffffffffffffffffffff021916908373ffffffffffffffffffffffffffffffffffffffff160217905550818373ffffffffffffffffffffffffffffffffffffffff168273ffffffffffffffffffffffffffffffffffffffff167f8c5be1e5ebec7d5bd14f71427d1e84f3dd0314c0f7b2291e5b200ac8c7c3b92560405160405180910390a4505050565b60006001905090565b6000611a6882611f4e565b90506000816000015173ffffffffffffffffffffffffffffffffffffffff16611a8f61194c565b73ffffffffffffffffffffffffffffffffffffffff161480611ac25750611ac18260000151611abc61194c565b611733565b5b80611b075750611ad061194c565b73ffffffffffffffffffffffffffffffffffffffff16611aef846109ab565b73ffffffffffffffffffffffffffffffffffffffff16145b905080611b40576040517f59c896be00000000000000000000000000000000000000000000000000000000815260040160405180910390fd5b8473ffffffffffffffffffffffffffffffffffffffff16826000015173ffffffffffffffffffffffffffffffffffffffff1614611ba9576040517fa114810000000000000000000000000000000000000000000000000000000000815260040160405180910390fd5b600073ffffffffffffffffffffffffffffffffffffffff168473ffffffffffffffffffffffffffffffffffffffff161415611c10576040517fea553b3400000000000000000000000000000000000000000000000000000000815260040160405180910390fd5b611c1d858585600161268e565b611c2d60008484600001516119a2565b6001600560008773ffffffffffffffffffffffffffffffffffffffff1673ffffffffffffffffffffffffffffffffffffffff16815260200190815260200160002060000160008282829054906101000a900467ffffffffffffffff160392506101000a81548167ffffffffffffffff021916908367ffffffffffffffff1602179055506001600560008673ffffffffffffffffffffffffffffffffffffffff1673ffffffffffffffffffffffffffffffffffffffff16815260200190815260200160002060000160008282829054906101000a900467ffffffffffffffff160192506101000a81548167ffffffffffffffff021916908367ffffffffffffffff160217905550836004600085815260200190815260200160002060000160006101000a81548173ffffffffffffffffffffffffffffffffffffffff021916908373ffffffffffffffffffffffffffffffffffffffff160217905550426004600085815260200190815260200160002060000160146101000a81548167ffffffffffffffff021916908367ffffffffffffffff1602179055506000600184019050600073ffffffffffffffffffffffffffffffffffffffff166004600083815260200190815260200160002060000160009054906101000a900473ffffffffffffffffffffffffffffffffffffffff1673ffffffffffffffffffffffffffffffffffffffff161415611ede57600054811015611edd5782600001516004600083815260200190815260200160002060000160006101000a81548173ffffffffffffffffffffffffffffffffffffffff021916908373ffffffffffffffffffffffffffffffffffffffff16021790555082602001516004600083815260200190815260200160002060000160146101000a81548167ffffffffffffffff021916908367ffffffffffffffff1602179055505b5b50828473ffffffffffffffffffffffffffffffffffffffff168673ffffffffffffffffffffffffffffffffffffffff167fddf252ad1be2c89b69c2b068fc378daa952ba7f163c4a11628f55a4df523b3ef60405160405180910390a4611f478585856001612694565b5050505050565b611f56612a69565b600082905080611f64611a54565b11158015611f73575060005481105b156121a6576000600460008381526020019081526020016000206040518060600160405290816000820160009054906101000a900473ffffffffffffffffffffffffffffffffffffffff1673ffffffffffffffffffffffffffffffffffffffff1673ffffffffffffffffffffffffffffffffffffffff1681526020016000820160149054906101000a900467ffffffffffffffff1667ffffffffffffffff1667ffffffffffffffff16815260200160008201601c9054906101000a900460ff161515151581525050905080604001516121a457600073ffffffffffffffffffffffffffffffffffffffff16816000015173ffffffffffffffffffffffffffffffffffffffff16146120885780925050506121d8565b5b6001156121a357818060019003925050600460008381526020019081526020016000206040518060600160405290816000820160009054906101000a900473ffffffffffffffffffffffffffffffffffffffff1673ffffffffffffffffffffffffffffffffffffffff1673ffffffffffffffffffffffffffffffffffffffff1681526020016000820160149054906101000a900467ffffffffffffffff1667ffffffffffffffff1667ffffffffffffffff16815260200160008201601c9054906101000a900460ff1615151515815250509050600073ffffffffffffffffffffffffffffffffffffffff16816000015173ffffffffffffffffffffffffffffffffffffffff161461219e5780925050506121d8565b612089565b5b505b6040517fdf2d9b4200000000000000000000000000000000000000000000000000000000815260040160405180910390fd5b919050565b6000600860009054906101000a900473ffffffffffffffffffffffffffffffffffffffff16905081600860006101000a81548173ffffffffffffffffffffffffffffffffffffffff021916908373ffffffffffffffffffffffffffffffffffffffff1602179055508173ffffffffffffffffffffffffffffffffffffffff168173ffffffffffffffffffffffffffffffffffffffff167f8be0079c531659141344cd1fd0a4f28419497f9722a3daafe3b4186f6b6457e060405160405180910390a35050565b6122bd82826040518060200160405280600081525061269a565b5050565b60006122e28473ffffffffffffffffffffffffffffffffffffffff166118bf565b15612442578373ffffffffffffffffffffffffffffffffffffffff1663150b7a0261230b61194c565b8786866040518563ffffffff1660e01b815260040161232d9493929190613092565b602060405180830381600087803b15801561234757600080fd5b505af192505050801561237857506040513d601f19601f820116820180604052508101906123759190612dfb565b60015b6123f2573d80600081146123a8576040519150601f19603f3d011682016040523d82523d6000602084013e6123ad565b606091505b506000815114156123ea576040517fd1a57ed600000000000000000000000000000000000000000000000000000000815260040160405180910390fd5b805181602001fd5b63150b7a0260e01b7bffffffffffffffffffffffffffffffffffffffffffffffffffffffff1916817bffffffffffffffffffffffffffffffffffffffffffffffffffffffff191614915050612447565b600190505b949350505050565b60606009805461245e90613440565b80601f016020809104026020016040519081016040528092919081815260200182805461248a90613440565b80156124d75780601f106124ac576101008083540402835291602001916124d7565b820191906000526020600020905b8154815290600101906020018083116124ba57829003601f168201915b5050505050905090565b60606000821415612529576040518060400160405280600181526020017f30000000000000000000000000000000000000000000000000000000000000008152509050612689565b600082905060005b6000821461255b578080612544906134a3565b915050600a8261255491906132cb565b9150612531565b60008167ffffffffffffffff81111561259d577f4e487b7100000000000000000000000000000000000000000000000000000000600052604160045260246000fd5b6040519080825280601f01601f1916602001820160405280156125cf5781602001600182028036833780820191505090505b5090505b60008514612682576001826125e89190613356565b9150600a856125f791906134ec565b60306126039190613275565b60f81b81838151811061263f577f4e487b7100000000000000000000000000000000000000000000000000000000600052603260045260246000fd5b60200101907effffffffffffffffffffffffffffffffffffffffffffffffffffffffffffff1916908160001a905350600a8561267b91906132cb565b94506125d3565b8093505050505b919050565b50505050565b50505050565b6126a783838360016126ac565b505050565b600080549050600073ffffffffffffffffffffffffffffffffffffffff168573ffffffffffffffffffffffffffffffffffffffff161415612719576040517f2e07630000000000000000000000000000000000000000000000000000000000815260040160405180910390fd5b6000841415612754576040517fb562e8dd00000000000000000000000000000000000000000000000000000000815260040160405180910390fd5b612761600086838761268e565b83600560008773ffffffffffffffffffffffffffffffffffffffff1673ffffffffffffffffffffffffffffffffffffffff16815260200190815260200160002060000160008282829054906101000a900467ffffffffffffffff160192506101000a81548167ffffffffffffffff021916908367ffffffffffffffff16021790555083600560008773ffffffffffffffffffffffffffffffffffffffff1673ffffffffffffffffffffffffffffffffffffffff16815260200190815260200160002060000160088282829054906101000a900467ffffffffffffffff160192506101000a81548167ffffffffffffffff021916908367ffffffffffffffff160217905550846004600083815260200190815260200160002060000160006101000a81548173ffffffffffffffffffffffffffffffffffffffff021916908373ffffffffffffffffffffffffffffffffffffffff160217905550426004600083815260200190815260200160002060000160146101000a81548167ffffffffffffffff021916908367ffffffffffffffff160217905550600081905060005b858110156129c657818773ffffffffffffffffffffffffffffffffffffffff16600073ffffffffffffffffffffffffffffffffffffffff167fddf252ad1be2c89b69c2b068fc378daa952ba7f163c4a11628f55a4df523b3ef60405160405180910390a483801561297a575061297860008884886122c1565b155b156129b1576040517fd1a57ed600000000000000000000000000000000000000000000000000000000815260040160405180910390fd5b818060010192505080806001019150506128ff565b5080600081905550506129dc6000868387612694565b5050505050565b8280546129ef90613440565b90600052602060002090601f016020900481019282612a115760008555612a58565b82601f10612a2a57805160ff1916838001178555612a58565b82800160010185558215612a58579182015b82811115612a57578251825591602001919060010190612a3c565b5b509050612a659190612aac565b5090565b6040518060600160405280600073ffffffffffffffffffffffffffffffffffffffff168152602001600067ffffffffffffffff1681526020016000151581525090565b5b80821115612ac5576000816000905550600101612aad565b5090565b6000612adc612ad7846131bb565b613196565b905082815260208101848484011115612af457600080fd5b612aff8482856133fe565b509392505050565b6000612b1a612b15846131ec565b613196565b905082815260208101848484011115612b3257600080fd5b612b3d8482856133fe565b509392505050565b600081359050612b54816136b1565b92915050565b600081359050612b69816136c8565b92915050565b600081359050612b7e816136df565b92915050565b600081519050612b93816136df565b92915050565b600082601f830112612baa57600080fd5b8135612bba848260208601612ac9565b91505092915050565b600082601f830112612bd457600080fd5b8135612be4848260208601612b07565b91505092915050565b600081359050612bfc816136f6565b92915050565b600060208284031215612c1457600080fd5b6000612c2284828501612b45565b91505092915050565b60008060408385031215612c3e57600080fd5b6000612c4c85828601612b45565b9250506020612c5d85828601612b45565b9150509250929050565b600080600060608486031215612c7c57600080fd5b6000612c8a86828701612b45565b9350506020612c9b86828701612b45565b9250506040612cac86828701612bed565b9150509250925092565b60008060008060808587031215612ccc57600080fd5b6000612cda87828801612b45565b9450506020612ceb87828801612b45565b9350506040612cfc87828801612bed565b925050606085013567ffffffffffffffff811115612d1957600080fd5b612d2587828801612b99565b91505092959194509250565b60008060408385031215612d4457600080fd5b6000612d5285828601612b45565b9250506020612d6385828601612b5a565b9150509250929050565b60008060408385031215612d8057600080fd5b6000612d8e85828601612b45565b9250506020612d9f85828601612bed565b9150509250929050565b600060208284031215612dbb57600080fd5b6000612dc984828501612b5a565b91505092915050565b600060208284031215612de457600080fd5b6000612df284828501612b6f565b91505092915050565b600060208284031215612e0d57600080fd5b6000612e1b84828501612b84565b91505092915050565b600060208284031215612e3657600080fd5b600082013567ffffffffffffffff811115612e5057600080fd5b612e5c84828501612bc3565b91505092915050565b600060208284031215612e7757600080fd5b6000612e8584828501612bed565b91505092915050565b612e978161338a565b82525050565b612ea68161339c565b82525050565b6000612eb782613232565b612ec18185613248565b9350612ed181856020860161340d565b612eda816135d9565b840191505092915050565b6000612ef08261323d565b612efa8185613259565b9350612f0a81856020860161340d565b612f13816135d9565b840191505092915050565b6000612f298261323d565b612f33818561326a565b9350612f4381856020860161340d565b80840191505092915050565b60008154612f5c81613440565b612f66818661326a565b94506001821660008114612f815760018114612f9257612fc5565b60ff19831686528186019350612fc5565b612f9b8561321d565b60005b83811015612fbd57815481890152600182019150602081019050612f9e565b838801955050505b50505092915050565b6000612fdb602683613259565b9150612fe6826135ea565b604082019050919050565b6000612ffe602083613259565b915061300982613639565b602082019050919050565b6000613021602f83613259565b915061302c82613662565b604082019050919050565b613040816133f4565b82525050565b60006130528286612f1e565b915061305e8285612f1e565b915061306a8284612f4f565b9150819050949350505050565b600060208201905061308c6000830184612e8e565b92915050565b60006080820190506130a76000830187612e8e565b6130b46020830186612e8e565b6130c16040830185613037565b81810360608301526130d38184612eac565b905095945050505050565b60006020820190506130f36000830184612e9d565b92915050565b600060208201905081810360008301526131138184612ee5565b905092915050565b6000602082019050818103600083015261313481612fce565b9050919050565b6000602082019050818103600083015261315481612ff1565b9050919050565b6000602082019050818103600083015261317481613014565b9050919050565b60006020820190506131906000830184613037565b92915050565b60006131a06131b1565b90506131ac8282613472565b919050565b6000604051905090565b600067ffffffffffffffff8211156131d6576131d56135aa565b5b6131df826135d9565b9050602081019050919050565b600067ffffffffffffffff821115613207576132066135aa565b5b613210826135d9565b9050602081019050919050565b60008190508160005260206000209050919050565b600081519050919050565b600081519050919050565b600082825260208201905092915050565b600082825260208201905092915050565b600081905092915050565b6000613280826133f4565b915061328b836133f4565b9250827fffffffffffffffffffffffffffffffffffffffffffffffffffffffffffffffff038211156132c0576132bf61351d565b5b828201905092915050565b60006132d6826133f4565b91506132e1836133f4565b9250826132f1576132f061354c565b5b828204905092915050565b6000613307826133f4565b9150613312836133f4565b9250817fffffffffffffffffffffffffffffffffffffffffffffffffffffffffffffffff048311821515161561334b5761334a61351d565b5b828202905092915050565b6000613361826133f4565b915061336c836133f4565b92508282101561337f5761337e61351d565b5b828203905092915050565b6000613395826133d4565b9050919050565b60008115159050919050565b60007fffffffff0000000000000000000000000000000000000000000000000000000082169050919050565b600073ffffffffffffffffffffffffffffffffffffffff82169050919050565b6000819050919050565b82818337600083830152505050565b60005b8381101561342b578082015181840152602081019050613410565b8381111561343a576000848401525b50505050565b6000600282049050600182168061345857607f821691505b6020821081141561346c5761346b61357b565b5b50919050565b61347b826135d9565b810181811067ffffffffffffffff8211171561349a576134996135aa565b5b80604052505050565b60006134ae826133f4565b91507fffffffffffffffffffffffffffffffffffffffffffffffffffffffffffffffff8214156134e1576134e061351d565b5b600182019050919050565b60006134f7826133f4565b9150613502836133f4565b9250826135125761351161354c565b5b828206905092915050565b7f4e487b7100000000000000000000000000000000000000000000000000000000600052601160045260246000fd5b7f4e487b7100000000000000000000000000000000000000000000000000000000600052601260045260246000fd5b7f4e487b7100000000000000000000000000000000000000000000000000000000600052602260045260246000fd5b7f4e487b7100000000000000000000000000000000000000000000000000000000600052604160045260246000fd5b6000601f19601f8301169050919050565b7f4f776e61626c653a206e6577206f776e657220697320746865207a65726f206160008201527f6464726573730000000000000000000000000000000000000000000000000000602082015250565b7f4f776e61626c653a2063616c6c6572206973206e6f7420746865206f776e6572600082015250565b7f4552433732314d657461646174613a2055524920717565727920666f72206e6f60008201527f6e6578697374656e7420746f6b656e0000000000000000000000000000000000602082015250565b6136ba8161338a565b81146136c557600080fd5b50565b6136d18161339c565b81146136dc57600080fd5b50565b6136e8816133a8565b81146136f357600080fd5b50565b6136ff816133f4565b811461370a57600080fd5b5056fea264697066735822122061d90b63a5c9df6aa7c4420a948a1a93dd275013bda3434c10309a042f4c3f7364736f6c63430008040033",
  "linkReferences": {},
  "deployedLinkReferences": {}
}